:100000000C94480C0C9464160C948B160C94700C85
:100010000C94700C0C94700C0C94700C0C94700C70
:100020000C94700C0C94700C0C94700C0C94700C60
:100030000C94700C0C94700C0C94700C0C94700C50
:100040000C9490170C94700C0C9453140C9485140D
:100050000C94700C0C94700C0C94700C0C94700C30
:100060000C9446110C94700C0000B50000013A018C
:100070006B019501BC01E001010220023E025A021F
:1000800075028F02A802BF02D702ED020303180314
:100090002D034103550368037B038E03A003B203C2
:1000A000C303D403E503F603060417042704360448
:1000B0004604550464047304820490049F04AD0450
:1000C000BB04C904D604E404F204FF040C051905BA
:1000D0002605330540054C055905650572057E0565
:1000E0008A059605A205AE05B905C505D105DC054D
:1000F000E805F305FE050906140620062B0635065D
:1001000040064B06560660066B06760680068A0693
:1001100095069F06A906B306BE06C806D206DC06EB
:10012000E606F006F90603070D07170720072A075A
:1001300033073D0747075007590763076C077507E3
:100140007F07880791079A07A307AC07B507BE0783
:10015000C707D007D907E207EB07F407FC07050834
:100160000E0816081F0828083008390841084A08F0
:1001700052085B0863086C0874087C0885088D08C1
:1001800095089E08A608AE08B608BE08C608CE08A0
:10019000D708DF08E708EF08F708FF0807090E0986
:1001A00016091E0926092E0936093E0945094D0979
:1001B00055095D0964096C0974097B0983098B0978
:1001C00092099A09A109A909B009B809BF09C70983
:1001D000CE09D609DD09E509EC09F309FB09020A94
:1001E0000A0A110A180A1F0A270A2E0A350A3D0AA6
:1001F000440A4B0A520A590A610A680A6F0A760AC7
:100200007D0A840A8B0A920A990AA00AA70AAF0AF1
:10021000B60ABD0AC40ACA0AD10AD80ADF0AE60A1F
:10022000ED0AF40AFB0A020B090B100B170B1D0B4E
:10023000240B2B0B320B390B3F0B460B4D0B540B86
:100240005A0B610B680B6F0B750B7C0B830B890BC7
:10025000900B970B9D0BA40BAB0BB10BB80BBF0B0B
:10026000C50BCC0BD20BD90BE00BE60BED0BF30B54
:10027000FA0B000C070C0D0C140C1A0C210C270C9B
:100280002E0C340C3B0C410C480C4E0C540C5B0CEB
:10029000610C680C6E0C740C7B0C810C880C8E0C41
:1002A000940C9B0CA10CA70CAE0CB40CBA0CC10C9A
:1002B000C70CCD0CD30CDA0CE00CE60CED0CF30CF7
:1002C000F90CFF0C060D0C0D120D180D1E0D250D51
:1002D0002B0D310D370D3E0D440D4A0D500D560DB1
:1002E0005C0D630D690D6F0D750D7B0D810D870D17
:1002F0008E0D940D9A0DA00DA60DAC0DB20DB80D7E
:10030000BE0DC40DCA0DD10DD70DDD0DE30DE90DE8
:10031000EF0DF50DFB0D010E070E0D0E130E190E50
:100320001F0E250E2B0E310E370E3D0E430E490EBD
:100330004F0E550E5B0E610E670E6D0E730E790E2D
:100340007F0E850E8B0E910E970E9D0EA20EA80E9F
:10035000AE0EB40EBA0EC00EC60ECC0ED20ED80E15
:10036000DE0EE40EE90EEF0EF50EFB0E010F070F89
:100370000D0F130F190F1E0F240F2A0F300F360FFA
:100380003C0F420F470F4D0F530F590F5F0F650F73
:100390006B0F700F760F7C0F820F880F8E0F930FED
:1003A000990F9F0FA50FAB0FB00FB60FBC0FC20F69
:1003B000C80FCD0FD30FD90FDF0FE50FEA0FF00FE6
:1003C000F60FFC0F021007100D10131019101F105C
:1003D00024102A10301036103B10411047104D10D9
:1003E000521058105E1064106A106F1075107B1058
:1003F000811086108C10921098109D10A310A910D7
:10040000AF10B410BA10C010C610CB10D110D71056
:10041000DD10E210E810EE10F310F910FF100511D6
:100420000A11101116111C11211127112D11331150
:1004300038113E1144114A114F1155115B116011D1
:1004400066116C11721177117D11831189118E1152
:1004500094119A119F11A511AB11B111B611BC11D4
:10046000C211C811CD11D311D911DE11E411EA1155
:10047000F011F511FB11011207120C1212121812D1
:100480001E12231229122F1235123A12401246124E
:100490004B12511257125D12621268126E127412D0
:1004A00079127F1285128B12901296129C12A21250
:1004B000A712AD12B312B912BE12C412CA12D012D0
:1004C000D612DB12E112E712ED12F212F812FE124E
:1004D000041309130F1315131B13211326132C13C5
:1004E000321338133E13431349134F1355135B1341
:1004F000601366136C13721378137D1383138913BF
:100500008F1395139A13A013A613AC13B213B81339
:10051000BD13C313C913CF13D513DB13E113E613B4
:10052000EC13F213F813FE1304140A140F14151429
:100530001B14211427142D14331439143F1444149C
:100540004A14501456145C14621468146E14741413
:100550007A14801486148B14911497149D14A31488
:10056000A914AF14B514BB14C114C714CD14D314FB
:10057000D914DF14E514EB14F114F714FD1403156A
:1005800009150F1515151B15211527152D153315D3
:1005900039153F1545154B15511557155E15641541
:1005A0006A15701576157C15821588158E159415AB
:1005B0009A15A115A715AD15B315B915BF15C51514
:1005C000CC15D215D815DE15E415EA15F115F71579
:1005D000FD1503160A16101616161C1622162916D5
:1005E0002F1635163B16421648164E1655165B1634
:1005F000611667166E1674167A16811687168D1692
:1006000094169A16A016A716AD16B416BA16C016EA
:10061000C716CD16D416DA16E016E716ED16F41640
:10062000FA16011707170E1714171B17211728178B
:100630002E1735173B17421748174F1756175C17D9
:1006400063176917701777177D1784178B17911722
:1006500098179F17A517AC17B317B917C017C71767
:10066000CE17D417DB17E217E917EF17F617FD17A8
:1006700004180B18111818181F1826182D183418DC
:100680003B1842184918501857185E1864186B1810
:1006900072187918811888188F1896189D18A41840
:1006A000AB18B218B918C018C718CF18D618DD186B
:1006B000E418EB18F318FA18011909191019171989
:1006C0001E1926192D1935193C1943194B195219A0
:1006D0005A1961196919701978197F1987198E19B2
:1006E00096199D19A519AD19B419BC19C419CB19BE
:1006F000D319DB19E319EA19F219FA19021A0A1ABD
:10070000121A1A1A211A291A311A391A411A491AAF
:10071000511A5A1A621A6A1A721A7A1A821A8A1A9A
:10072000931A9B1AA31AAC1AB41ABC1AC51ACD1A7A
:10073000D61ADE1AE71AEF1AF81A001B091B121B49
:100740001A1B231B2C1B341B3D1B461B4F1B581B0A
:10075000611B6A1B731B7C1B851B8E1B971BA01BBD
:10076000A91BB31BBC1BC51BCF1BD81BE11BEB1B61
:10077000F51BFE1B081C111C1B1C251C2F1C381CE8
:10078000421C4C1C561C601C6A1C751C7F1C891C5E
:10079000931C9E1CA81CB21CBD1CC81CD21CDD1CBA
:1007A000E81CF31CFD1C081D141D1F1D2A1D351DF2
:1007B000401D4C1D571D631D6F1D7A1D861D921D0A
:1007C0009E1DAA1DB61DC31DCF1DDC1DE81DF51DF8
:1007D000021E0F1E1C1E291E361E441E521E5F1EA8
:1007E0006D1E7B1E891E981EA61EB51EC41ED31E1E
:1007F000E21EF21E011F111F221F321F431F541F32
:10080000651F761F881F9A1FAD1FC01FD31FE71FCC
:10081000FB1F102025203B2051206920802099209B
:10082000B320CE20EA200821272148216C219321E2
:10083000BD21EE21282273222823339388C3E5D0DB
:1008400081C12B8782C0DF4F654052B81441EC5103
:100850005E41F6288E416210A94160E5C041105802
:10086000D64148E1E9410AD7FB417D3F06421904E0
:100870000E42D34D1542082C1C420EAD22421DDA09
:1008800028426ABC2E42235B344271BD394279E969
:100890003E424EE2434214AE4842D94E4D42AEC7AC
:1008A0005142B21D5642E5505A425A645E42235BA1
:1008B00062423F356642C9F66942B89E6D422731B1
:1008C00071420EAD74427B14784273687B42FCA97E
:1008D0007E420EED80426A7C8242190484429C84EE
:1008E000854271FD86429E6F884223DB894200402B
:1008F0008B423B9F8C4252F88D42C74B8F421D9AD0
:100900009042D1E29142E926934266669442C5A0A4
:1009100095420AD79642B408984246369942BE5F3D
:100920009A42A2859B426DA79C42A2C59D4242E08D
:100930009E424CF79F42440BA142A61BA24279293A
:10094000A342B633A442643BA5420040A64289417B
:10095000A7428340A842EE3CA942C936AA42142EBF
:10096000AB425423AC428115AD42A205AE42B6F370
:10097000AE423BDFAF42B4C8B04221B0B142819534
:10098000B242D578B3421D5AB4425839B5420A171B
:10099000B642B0F2B6424ACCB742DDA4B842E17AE0
:1009A000B942DF4FBA42D122BB4239F4BB4219C42B
:1009B000BC426F92BD423B5FBE427F2ABF42BCF445
:1009C000BF42EEBCC0421984C142BA49C242D30DF3
:1009D000C342E5D0C3426F92C442F252C5426F1285
:1009E000C64262D0C642CD8CC742B448C842120348
:1009F000C9426ABCC9423974CA42852BCB4248E11C
:100A0000CB428796CC423D4ACD42EEFCCD4298AED9
:100A1000CE42BE5FCF425C0FD04277BED042086C60
:100A2000D1421719D2421FC5D242A470D342A01A94
:100A3000D44219C4D4420E6DD5427B14D64264BB55
:100A4000D642CB61D742A806D84285ABD842D94E10
:100A5000D942AAF1D942F893DA423F35DB4204D6B3
:100A6000DB424676DC428115DD42B6B3DD42685199
:100A7000DE4298EEDE42448BDF42E926E0420CC2C1
:100A8000E042AC5CE14246F6E142DF8FE24273288D
:100A9000E34283C0E3428D57E44298EEE4429C84F3
:100AA000E5421D1AE6421BAFE6429643E7428DD768
:100AB000E742026BE842F4FDE842DF8FE942CB21D6
:100AC000EA4233B3EA429643EB42F8D3EB42D763B0
:100AD000EC42B0F2EC428981ED42DF0FEE42B29D72
:100AE000EE42022BEF42CFB7EF421944F042DFCF84
:100AF000F042235BF14266E6F1422771F242E1FAED
:100B0000F2429C84F342D30DF4420A97F4423B1F15
:100B1000F5426DA7F5421B2FF64246B6F642EE3C73
:100B2000F74296C3F742BA49F8425CCFF8427B5489
:100B3000F9429AD9F942355EFA424EE2FA426666C5
:100B4000FB42FCE9FB420E6DFC429EEFFC422D7223
:100B5000FD4239F4FD424676FE42CFF7FE42D5789B
:100B6000FF4258F9FF42EE3C00432F7D00432FBD6A
:100B70000043EEFC00436A3C0143E77B014364BB56
:100B800001435EFA01439A390243527802430AB79D
:100B90000243C3F50243393403436F720343A4B0E5
:100BA0000343D9EE0343CD2C04437F6A044331A8A9
:100BB0000443A2E504431223054383600543B29D29
:100BC0000543A0DA05438D17064339540643E590E3
:100BD000064391CD0643FC090743664607438F82CF
:100BE0000743B8BE0743A0FA0743873608432D7270
:100BF0000843D3AD084379E90843DD240943426043
:100C00000943649B094387D60943AA110A438B4CC5
:100C10000A436D870A434EC20A43EEFC0A434C372F
:100C20000B43EC710B434AAC0B4366E60B4383204A
:100C30000C43A05A0C43BC940C4398CE0C4373084D
:100C40000D430C420D43E77B0D433FB50D43D9EEF9
:100C50000D4331280E4389610E43E19A0E43F8D3C8
:100C60000E430E0D0F43E3450F43FA7E0F43CFB7FC
:100C70000F43A4F00F4337291043CB6110435E9A12
:100C80001043F2D21043440B114396431143E77BC8
:100C90001143F8B311434AEC11435A241243295C1F
:100CA00012433994124308CC1243D7031343A63B93
:100CB00013433373134302AB13438FE21343DB1924
:100CC000144368511443B488144300C014434CF7D0
:100CD0001443982E1543A2651543AC9C1543B6D317
:100CE0001543C10A1643CB411643937816435CAFB4
:100CF000164325E61643EE1C1743B65317433D8AA9
:100D00001743C5C017434CF71743D32D18435A64F4
:100D10001843A09A184327D118436D071943B23DD1
:100D20001943B6731943FCA9194342E01943461607
:100D30001A434A4C1A434E821A4352B81A4356EE8B
:100D40001A4319241B43DB591B43DF8F1B43A2C5E6
:100D50001B4364FB1B4327311C43A8661C436A9C4E
:100D60001C43ECD11C43AE071D432F3D1D43B07205
:100D70001D4331A81D43B2DD1D43F2121E437348CB
:100D80001E43B27D1E4333B31E4373E81E43B21DA0
:100D90001F43F2521F4331881F4371BD1F43B0F2FE
:100DA0001F43AE272043EE5C2043EC9120432BC72A
:100DB000204329FC20432731214325662143239BDF
:100DC000214321D021431F0522431D3A2243D96EDE
:100DD0002243D7A32243D5D82243910D23438F42E8
:100DE00023434C77234308AC2343C5E02343C31577
:100DF00024437F4A24433B7F2443F8B32443B4E88D
:100E00002443711D25432D522543A886254364BBE9
:100E1000254321F02543DD24264358592643148ECB
:100E200026438FC226434CF72643082C2743836072
:100E30002743FE942743BAC9274335FE2743F2329E
:100E400028436D672843E79B2843A4D028431F0508
:100E500029439A392943566E2943D1A229434CD7B5
:100E60002943080C2A4383402A43FE742A4379A964
:100E70002A4335DE2A43B0122B432B472B43A67B54
:100E80002B4362B02B43DDE42B4358192C43144E03
:100E90002C438F822C430AB72C43C7EB2C434220B0
:100EA0002D43BC542D4379892D43F4BD2D43B0F21D
:100EB0002D432B272E43E75B2E4362902E431FC505
:100EC0002E43DBF92E43562E2F4312632F43CF9729
:100ED0002F438BCC2F4348013043C33530437F6AC7
:100EE00030433B9F3043F8D33043B4083143B23DE5
:100EF00031436F7231432BA73143E7DB3143E510B8
:100F00003243A2453243A07A32435CAF32435AE4C3
:100F1000324317193343144E33431283334310B80B
:100F200033430EED33430C2234430A573443088CC9
:100F3000344348C1344346F63443852B35438360FC
:100F40003543C395354302CB3543000036433F3527
:100F500036437F6A3643BE9F36433FD536437F0ACA
:100F60003743BE3F37433F753743C1AA374300E09D
:100F7000374381153843024B38438380384304B6E6
:100F80003843C7EB3843482139430A5739438B8CE0
:100F900039434EC2394310F83943D32D3A4396634F
:100FA0003A439A993A435CCF3A4360053B43233B2B
:100FB0003B4327713B432BA73B432FDD3B4333137D
:100FC0003C4379493C437D7F3C43C3B53C4308ECFB
:100FD0003C434E223D4393583D43D98E3D4360C52B
:100FE0003D43A6FB3D432D323E43B4683E433B9F09
:100FF0003E4304D63E438B0C3F4354433F43DB798F
:101000003F43A4B03F436DE73F43771E40433F5506
:1010100040434A8C404354C340435EFA40436831E6
:10102000414373684143BE9F41430AD74143560E33
:101030004243A2454243EE7C42437BB4424308EC28
:10104000424396234343235B4343B09243437FCAC7
:1010500043434E0244431D3A4443EC714443BAA90E
:101060004443CBE14443DB194543EC514543FC8900
:1010700045434EC24543A0FA4543F2324643446BD2
:101080004643D7A3464329DC4643BC144743914D0E
:10109000474325864743FABE4743CFF74743A4302B
:1010A0004843796948438FA24843A6DB4843BC14B0
:1010B0004943144E49436D874943C5C049431DFA0E
:1010C000494375334A430E6D4A43A8A64A4383E019
:1010D0004A431D1A4B43F8534B43148E4B43F0C7FE
:1010E0004B430C024C43293C4C4346764C43A4B042
:1010F0004C4302EB4C4360254D4300604D43A09AA6
:101100004D433FD54D43DF0F4E43C14A4E43A28569
:101110004E43C5C04E43E7FB4E430A374F432D7243
:101120004F4391AD4F43F6E84F435A24504300607C
:101130005043A69B50434CD75043331351431B4F4E
:101140005143448B51432BC7514396035243BE3FF7
:101150005243297C524393B852433FF55243EC31FA
:101160005343986E534385AB534373E85343602511
:1011700054438F625443BE9F54432FDD5443A01AFF
:10118000554310585543C395554375D355432711BF
:1011900056431B4F5643508D564344CB5643790913
:1011A0005743F047574366865743DDC4574396037A
:1011B00058438F4258434881584342C058437DFFAB
:1011C0005843B83E5943F47D594371BD59432FFDEF
:1011D0005943AC3C5A43AC7C5A436ABC5A43ACFCBE
:1011E0005A43AC3C5B43EE7C5B4371BD5B43F4FD17
:1011F0005B43773E5C433B7F5C4342C05C434801BA
:101200005D434E425D4396835D431FC55D43A80623
:101210005E4331485E43FC895E4308CC5E43140E56
:101220005F4362505F43B0925F43FED45F438D17CC
:1012300060435E5A60432F9D604342E06043542305
:101240006143A86661433DAA6143D3ED61436831C0
:1012500062438175624358B96243B2FD6243CB4138
:1012600063436686634302CB6343DF0F6443BC542E
:101270006443DB996443FADE64435A246543FC69A2
:1012800065439EAF654381F56543A63B6643CB81CD
:10129000664331C86643D90E6743815567436A9CEC
:1012A000674354E367437F2A6843EC7168439AB904
:1012B00068434801694337496943279169439AD98B
:1012C00069430C226A437F6A6A4375B36A436AFCC6
:1012D0006A43A2456B43D98E6B4393D86B434E222E
:1012E0006C43086C6C4346B66C4383006D43024B01
:1012F0006D43C3956D43C5E06D43C72B6E430A77BD
:101300006E438FC26E43560E6F435E5A6F4366A69E
:101310006F43B0F26F433B3F7043088C704317D963
:10132000704325267143B673714348C171431B0F47
:1013300072432F5D724385AB72431DFA7243F648C8
:101340007343CF9773432BE77343873674432586E4
:10135000744304D6744366267543C97675436DC7D6
:1013600075435218764379697643E1BA76438B0C1C
:101370007743775E7743A4B07743D10278438155B2
:10138000784373A87843A6FB78431B4F794312A395
:1013900079430AF77943444B7A43BE9F7A43BCF4BE
:1013A0007A43BA497B433B9F7B43BCF47B43C14AAE
:1013B0007C4306A17C438DF77C43564E7D43A2A51A
:1013C0007D43EEFC7D43BC547E43CDAC7E431F0584
:1013D0007F43F45D7F43C9B67F4310088043DD340B
:1013E0008043CB618043FA8E80434ABC8043BAE994
:1013F00080434C1781431F4581431273814348A1A9
:1014000081437DCF8143F4FD8143AC2C8243855BD6
:1014100082437F8A8243BAB9824317E98243931891
:101420008343524883435278834373A88343B4D899
:10143000834337098443FC398443E16A8443E79B4F
:1014400084432FCD8443B8FE8443623085434E628B
:1014500085435A948543C9C6854337F98543082C8B
:101460008643FA5E86432D92864381C5864337F9CB
:1014700086430E2D87432761874360958743FCC9C8
:101480008743B8FE8743B6338843F6688843779E20
:10149000884319D488431D0A894362408943C97629
:1014A000894391AD89437BE48943C71B8A435453E5
:1014B0008A43028B8A4312C38A4364FB8A43F8330C
:1014C0008B43CD6C8B43E3A58B435CDF8B431719B8
:1014D0008C4312538C43508D8C43CFC78C43B00246
:1014E0008D43F43D8D4358798D431FB58D4348F1AD
:1014F0008D43B22D8E435E6A8E436DA78E43BCE44E
:101500008E436F228F4383608F43D99E8F4391DD3B
:101510008F43AC1C9043085C9043C79B9043E7DB30
:1015200090436A1C9143505D9143779E914321E023
:1015300091430C2292435A6492432BA792433DEA73
:101540009243D32D9343AA71934304B69343E1FA94
:10155000934300409443A2859443A6CB94430C123A
:101560009543F658954362A0954331E89543623020
:101570009643377996436FC29643080C9743465675
:101580009743E5A0974308EC9743AE379843D7833A
:10159000984383D09843B21D9943856B9943BAB958
:1015A000994393089A43F0579A43F0A79A4373F8E4
:1015B0009A4379499B43239B9B4371ED9B43624034
:1015C0009C43D7939C4310E89C43CD3C9D432D9274
:1015D0009D4331E89D43FA3E9E4366969E4377EED7
:1015E0009E432B479F43A4A09F43E1FA9F43C355CB
:1015F000A04389B1A043F40DA143236BA14317C9B4
:10160000A143CF27A2434C87A243AEE7A243F648AB
:10161000A34302ABA343D30DA443AA71A44366D64C
:10162000A443E73BA5436FA2A543DB09A6434E7243
:10163000A643A6DBA6430446A74368B1A743D31D30
:10164000A843448BA843BAF9A8435869A9431DDAB3
:10165000A943E74BAA43D9BEAA431233AB4373A8AD
:10166000AB43FA1EAC43C996AC43DF0FAD435E8A71
:10167000AD430406AE433383AE43AA01AF43898131
:10168000AF43D102B043A285B043DB09B143BE8F63
:10169000B1432B17B24321A0B243E12AB3432BB786
:1016A000B3433F45B4431FD5B443C966B5433DFA80
:1016B000B5439E8FB6430A27B74362C0B743A65BC4
:1016C000B84317F9B843B498B9437F3ABA4398DEA0
:1016D000BA43FE84BB43B22DBC43F6D8BC43A886B4
:1016E000BD43E936BE43DBE9BE437D9FBF4310588F
:1016F000C0437513C143CBD1C1433393C243CF57CA
:10170000C3439E1FC443C1EAC44379B9C543A68BF2
:10171000C643AA61C743643BC843F618C943C1FA2C
:10172000C943C5E0CA4302CBCB43DBB9CC4371AD5F
:10173000CD43C3A5CE4333A3CF43C3A5D043D3AD3D
:10174000D14385BBD2431BCFD343B4E8D443B408C1
:10175000D6433B2FD743AC5CD8436891D94391CD56
:10176000DA438911DC43D35DDD43B0B2DE4383103D
:10177000E043CF77E14317E9E243BC64E44344EB41
:10178000E543717DE743E71BE9432BC7EA4300804C
:10179000EC434C47EE43D31DF043BC04F243CDFC75
:1017A000F3432B07F6436025F8437358FA430CA222
:1017B000FC43B603FF43AEBF0044960B0244986659
:1017C0000344FCD104443B4F064400E00744048634
:1017D000094475430B44B01A0D44660E0F44DB21D7
:1017E0001144C55813448DB71544444318444E0260
:1017F0001B44F8FB1D448939214446C6244452B099
:101800002844AA092D44CBE931449E6F37443FC593
:101810003D44B225454498E64D44EC89584468E17E
:101820006544AA59774477DA8744F69C9A448756E8
:10183000BD4485DB1145F63F1C4600000008000250
:101840000100000304070000000000000000010286
:10185000040810204080010204081020010204083E
:10186000102004040404040404040202020202021C
:1018700003030303030300000000250028002B00DE
:1018800000000000240027002A00D90F0A13B51415
:1018900011241FBECFEFD8E0DEBFCDBF11E0A0E026
:1018A000B1E0EAE7FBE302C005900D92A233B10775
:1018B000D9F724E0A2E3B1E001C01D92A133B20741
:1018C000E1F718E1C0E9D8E104C02297FE010E94C7
:1018D000431BCA38D107C9F70E9481170C94BB1D5E
:1018E0000C94000081E08093C6020E94E61760938A
:1018F000C2027093C3028093C4029093C5020895FC
:10190000CF93DF93C8E4D1E08EE00E944F18899313
:10191000999381E0C635D807B9F78EE00E944F1839
:10192000880F991F880F991F865C974FFC0165915E
:101930007591859194910E94D5197093430160939C
:10194000420161E086E00E94951861E087E00E9414
:10195000951861E08DE00E94951860E082E00E9499
:10196000951860E086E00E94CE1860E087E00E9453
:10197000CE1826E040E052EC61E070E087E893E0AA
:101980000E94F11343E050E062E77CE080E00E94B7
:10199000441687E090E09093B7028093B602DF91FF
:1019A000CF91089520910601309107012F5F3F4F9D
:1019B00030930701209306018091560190915701C1
:1019C0002817390719F41092BB0208958091440139
:1019D00090914501A0914601B091470180933E014D
:1019E00090933F01A0934001B09341018091420147
:1019F0009091430190933D0180933C0187E0829F49
:101A0000F001839FF00D1124E85AFE4F84819581E7
:101A1000909343018093420180819181A281B3819F
:101A20008093440190934501A0934601B0934701F0
:101A300008954F925F926F927F928F929F92AF9292
:101A4000BF92CF92DF92EF92FF920F931F93CF93AB
:101A5000DF93CDB7DEB760970FB6F894DEBF0FBE49
:101A6000CDBF8EE00E944F18209154013091550156
:101A70007C01E21AF30A9701275F3F4F23313105BA
:101A800070F4E8E4F1E0228133812193319301E0A5
:101A9000E435F007C1F79093550180935401E8E4D1
:101AA000F1E060E070E081919191680F791F11E0A1
:101AB000E635F107C1F7882777FD8095982F0E94BA
:101AC000081A20E030E040EE50E40E946D1920E05A
:101AD00030E040E05FE30E9405190E94D519709341
:101AE000BD026093BC02660F771F660F771F665CAE
:101AF000774FFB0185919591A591B4918093360123
:101B000090933701A0933801B09339010E94DA17FE
:101B1000C090BE02D090BF02E090C002F090C1021F
:101B20006C197D098E099F09C0904401D090450130
:101B3000E0904601F09047016C157D058E059F05EC
:101B400010F00E94D20C2091C70280914201909126
:101B50004301222309F4D0C120913C0130913D0181
:101B6000E0904401F0904501009146011091470139
:101B7000E982FA820B831C83BC01621B730BE09029
:101B80003E01F0903F010091400110914101ED8232
:101B9000FE820F8318876901EE24D7FCE094FE2CA7
:101BA000281739070CF09BC0882777FD8095982F60
:101BB0000E94081A4B015C0120E030E040EA51E449
:101BC0000E94BC1A2B013C0169817A818B819C8126
:101BD0000D811E812F813885601B710B820B930B49
:101BE0000E94061A9B01AC01C301B2010E946D194B
:101BF00020913601309137014091380150913901DF
:101C00000E9405196D837E838F8398870E94DA175F
:101C100069837A838B839C8320913E0130913F01BD
:101C200040914001509141012D873E874F87588B4D
:101C30006091440170914501809146019091470166
:101C4000621B730B840B950B0E94061A2B013C013F
:101C5000C701B6010E94081A6B017C018091BE0287
:101C60009091BF02A091C002B091C10229813A8136
:101C70004B815C81281B390B4A0B5B0BCA01B901F4
:101C80002D853E854F855889621B730B840B950B00
:101C90000E94061A9B01AC01C501B4010E94BC1A46
:101CA000A30192010E946D199B01AC01C701B6010D
:101CB0000E9405199B01AC016D817E818F81988501
:101CC0000E9469196091420170914301A0903C010A
:101CD000B0903D016A197B0987FFB4C09AC088277C
:101CE00077FD8095982F0E94081A4B015C0120E037
:101CF00030E040EA51E40E94BC1A2B013C016981AA
:101D00007A818B819C810D811E812F813885601B9A
:101D1000710B820B930B0E94061A9B01AC01C3014D
:101D2000B2010E946D192091360130913701409126
:101D30003801509139010E9405196D837E838F838C
:101D400098870E94DA1769837A838B839C8320911A
:101D50003E0130913F0140914001509141012D875A
:101D60003E874F87588B6091440170914501809167
:101D7000460190914701621B730B840B950B0E94E7
:101D8000061A2B013C01C701B6010E94081A6B011B
:101D90007C018091BE029091BF02A091C002B091DF
:101DA000C10229813A814B815C81281B390B4A0B86
:101DB0005B0BCA01B9012D853E854F855889621B91
:101DC000730B840B950B0E94061A9B01AC01C50195
:101DD000B4010E94BC1AA30192010E946D199B01DB
:101DE000AC01C701B6010E9405199B01AC016D81D0
:101DF0007E818F8198850E94B81A6091420170910E
:101E00004301A0903C01B0903D016A197B0918166E
:101E1000CCF4882777FD8095982F0E94081A20E03F
:101E200030E040EA51E40E94BC1AA30192010E94F2
:101E30006D19209136013091370140913801509150
:101E4000390157C0882777FD8095982F0E94081A7E
:101E50002B013C010E94DA1769837A838B839C8370
:101E6000C0903E01D0903F01E0904001F0904101D0
:101E7000B501882777FD8095982F0E94081A4B019D
:101E80005C018091BE029091BF02A091C002B0910E
:101E9000C10229813A814B815C81281B390B4A0B95
:101EA0005B0BCA01B9016C197D098E099F090E945B
:101EB000061A9B01AC01C301B2010E94BC1A2B019E
:101EC0003C016091440170914501809146019091DF
:101ED00047016C197D098E099F090E94061A9B0112
:101EE000AC01C301B2010E946D199B01AC01C50197
:101EF000B4010E94051907C0BC01882777FD8095B1
:101F0000982F0E94081A60933201709333018093D6
:101F10003401909335012091360130913701409181
:101F200038015091390160913201709133018091F3
:101F30003401909135010E94041920E030E04AEF0D
:101F400053E40E94BC1A0E94D51970933B01609320
:101F50003A01693E33E0730714F068EE73E077FFEF
:101F600002C060E070E0660F771F68597F4FFB0189
:101F70002591349180E895E2821B930B9093BA02ED
:101F80008093B90260960FB6F894DEBF0FBECDBF46
:101F9000DF91CF911F910F91FF90EF90DF90CF9045
:101FA000BF90AF909F908F907F906F905F904F9079
:101FB00008951092B8021092BA021092B9020895D0
:101FC000CF92DF92EF92FF920F931F93CF93DF9305
:101FD00000D000D000D0CDB7DEB787E893E00E94F4
:101FE0000E13181619060CF0D5C087E893E00E946E
:101FF0002713833509F446C0ECF4833459F1813555
:1020000009F0C8C04BE367E873E0CE0101960E9477
:102010001B16CE0101960E947517709357016093AD
:102020005601CE0101960E94B21608E511E0E12C9E
:10203000F12C68C0843549F1863509F0ABC04AE01F
:1020400050E062E370E087E893E00E94D8156DE00D
:1020500071E053C04BE367E873E0CE0101960E9444
:102060001B16CE0101960E94751721E0672B682B85
:10207000692B09F420E02093C702CE0101960E944B
:10208000B21688C01092BB0285C00E94DA17AB015D
:10209000BC018091BE029091BF02A091C002B0919C
:1020A000C102481B590B6A0B7B0B2AE030E087E822
:1020B00093E00E94E0156FE071E087E893E00E94F2
:1020C00036156091BC027091BD024AE050E087E88D
:1020D00093E00E94D8156FE071E087E893E00E94DA
:1020E000361560913A0170913B014AE050E087E873
:1020F00093E00E94D8156FE071E087E893E00E94BA
:10210000361548C08091560190915701E816F9069E
:1021100064F54BE367E873E0CE0101960E941B165D
:10212000CE0101960E947517F80160837183828346
:102130009383CE0101960E94B2164BE367E873E0E9
:10214000CE0101960E941B16CE0101960E947517C2
:10215000F80175836483CE0101960E94B216FFEFE9
:10216000EF1AFF0A095F1F4FCDCF0E94DA17609365
:10217000BE027093BF028093C0029093C1028FEFA2
:102180009FEF90930701809306010E94D20C81E09B
:102190008093BB028091BB02882321F08091C6020C
:1021A000811134C00E94E6170091C2021091C3024F
:1021B0002091C4023091C5024091B802442371F1CC
:1021C0004091B9025091BA026B017C01C01AD10A48
:1021D000E20AF30ACA01A0E0B0E0C816D906EA068E
:1021E000FB06E0F040385542C8F461E08091B60249
:1021F0000E94CE1887E090E00E94091860E080916C
:10220000B6020E94CE181092B80208C01092C60200
:102210000E94190D81E08093B802C4CF26960FB6B4
:10222000F894DEBF0FBECDBFDF91CF911F910F910C
:10223000FF90EF90DF90CF900895613298F4209155
:102240003503243089F46093EA02FC018CEE92E0BD
:10225000DC012A2F281B261718F421912D93F9CF82
:1022600080E0089581E0089582E0089585ED8093EF
:10227000BC008091BC0084FDFCCF10923503089512
:1022800085EC8093BC001092350308951F920F9245
:102290000FB60F9211242F933F934F935F936F9339
:1022A0007F938F939F93AF93BF93EF93FF9380910F
:1022B000B900887F803609F49EC078F5883209F429
:1022C0005DC090F4803109F456C038F4882309F4D5
:1022D000F5C0883009F44FC0F5C0883109F44EC00C
:1022E000803209F45FC0EEC0803409F46AC058F44B
:1022F000803309F457C0883309F0E4C08093C802E2
:102300000E944011DFC0803509F44FC0883509F4C0
:102310005DC0883409F0D6C0D3C0883909F4C4C080
:10232000A8F4883709F467C038F4883609F463C024
:10233000803709F460C0C6C0883809F4B5C0803958
:1023400009F45FC0803809F0BDC05BC0803B09F470
:1023500083C038F4803A09F466C0883A09F47CC036
:10236000B1C0803C09F4A4C0883C09F4A1C0883BFA
:1023700009F487C0A7C08091340310C090910D0369
:1023800080910C03981770F5E0910D0381E08E0F9A
:1023900080930D03F0E0E25FFC4F80818093BB00EF
:1023A00085EC83C08093C8028BC0E0910D0381E06F
:1023B0008E0F80930D038091BB00F0E0E25FFC4F35
:1023C000808390910D0380910C036BC0E0910D030D
:1023D00081E08E0F80930D038091BB00F0E0E25FFF
:1023E000FC4F80838091330381116AC081E0809328
:1023F000320384EA5EC083E0809335031092C90201
:10240000CFCF8091C902803208F04EC0E091C9025E
:1024100081E08E0F8093C9028091BB00F0E0E6530B
:10242000FD4F8083BDCF0E9440118091C902803250
:1024300030F4E091C902F0E0E653FD4F1082609164
:10244000C90270E0E0912E03F0912F038AEC92E034
:1024500009951092C90236C084E08093350310922A
:10246000EB021092EA02E0913003F09131030995FA
:102470008091EA02811105C081E08093EA02109206
:10248000EC02E091EB0281E08E0F8093EB02F0E032
:10249000E451FD4F80818093BB009091EB028091CD
:1024A000EA02981708F47CCF85E88093BC000AC044
:1024B00085EC8093BC001092350304C01092C802D2
:1024C0000E943611FF91EF91BF91AF919F918F9133
:1024D0007F916F915F914F913F912F910F900FBE20
:1024E0000F901F9018958091650390E020916603EE
:1024F000821B910908952091660380916503281736
:1025000050F4E22FF0E0E959FC4F808190E02F5F1A
:102510002093660308958FEF9FEF0895E09166037F
:1025200080916503E81730F4F0E0E959FC4F8081B1
:1025300090E008958FEF9FEF08950895CF92DF9276
:10254000EF92FF920F931F93CF93DF937C01CB0108
:102550008A0120914203222389F0EB016B01C40E12
:10256000D51ECC15DD0569F06991D701ED91FC917F
:102570000190F081E02DC7010995F3CF642F0E94EF
:102580001D11C801DF91CF911F910F91FF90EF9026
:10259000DF90CF900895CF93DF931F92CDB7DEB732
:1025A0006983209142032223D1F0209143032032FA
:1025B00040F021E030E0FC013383228380E090E0B2
:1025C00015C080914403E82FF0E0EB5BFC4F99814C
:1025D00090838F5F809344038093430305C061E041
:1025E000CE0101960E941D1181E090E00F90DF91D5
:1025F000CF910895FC011382128248EE53E060E00F
:1026000070E0448355836683778385E191E091830D
:102610008083089586E393E00C94FA12FC01818D87
:10262000228D90E0805C9F4F821B91098F739927C8
:102630000895FC01918D828D981731F0828DE80FFD
:10264000F11D858D90E008958FEF9FEF0895FC01B7
:10265000918D828D981761F0828DDF01A80FB11DD9
:102660005D968C91928D9F5F9F73928F90E00895FD
:102670008FEF9FEF08958BEA94E1892B49F080E07A
:1026800090E0892B29F00E94AB1481110C9400007A
:102690000895FC01848DDF01A80FB11DA35ABF4F1F
:1026A0002C91848D90E001968F739927848FA68951
:1026B000B7892C93A089B1898C9180648C93938D78
:1026C000848D981306C00288F389E02D80818F7D68
:1026D00080830895CF93DF93EC01888D8823C9F020
:1026E000EA89FB89808185FD05C0A889B9898C911B
:1026F00086FD0FC00FB607FCF5CF808185FFF2CFB6
:10270000A889B9898C9185FFEDCFCE010E9449132C
:10271000E7CFDF91CF910895CF92DF92FF920F9391
:102720001F93CF93DF931F92CDB7DEB76C0181E08B
:10273000D60158968C9358975B969C915B975C96C4
:102740008C915C97981307C05096ED91FC9151972E
:10275000808185FD2EC0F601038D10E00F5F1F4FB5
:102760000F731127F02EF601848DF81211C00FB6E9
:1027700007FCF9CFD6015096ED91FC9151978081DD
:1027800085FFF1CFC60169830E9449136981EBCFB0
:10279000838DE80FF11DE35AFF4F6083D6015B96EE
:1027A0000C935B975296ED91FC91539780818062D8
:1027B0000CC0D6015696ED91FC91579760835096C8
:1027C000ED91FC91519780818064808381E090E05D
:1027D0000F90DF91CF911F910F91FF90DF90CF90DD
:1027E0000895BF92CF92DF92EF92FF92CF93DF9343
:1027F000EC016A017B01B22EE889F98982E08083CD
:10280000411581EE580761057105A1F060E079E09E
:102810008DE390E0A70196010E941F1B2150310912
:10282000410951095695479537952795211580E11E
:10283000380798F0E889F989108260E874E88EE139
:1028400090E0A70196010E941F1B21503109410908
:1028500051095695479537952795EC85FD85308329
:10286000EE85FF852083188EEC89FD89B082EA8988
:10287000FB89808180618083EA89FB89808188600F
:102880008083EA89FB89808180688083EA89FB896B
:1028900080818F7D8083DF91CF91FF90EF90DF90DB
:1028A000CF90BF9008951F920F920FB60F921124F0
:1028B0002F938F939F93EF93FF93E0919703F09162
:1028C00098038081E0919D03F0919E0382FD12C0E8
:1028D00090818091A0038F5F8F732091A103821755
:1028E00051F0E091A003F0E0E957FC4F958F809301
:1028F000A00301C08081FF91EF919F918F912F9153
:102900000F900FBE0F901F9018951F920F920FB649
:102910000F9211242F933F934F935F936F937F9365
:102920008F939F93AF93BF93EF93FF9387E893E0C9
:102930000E944913FF91EF91BF91AF919F918F91A9
:102940007F916F915F914F913F912F910F900FBEAB
:102950000F901F90189587E893E00E940E1321E0D6
:10296000892B09F420E0822F089510928A03109297
:10297000890388EE93E0A0E0B0E080938B0390930E
:102980008C03A0938D03B0938E0385E291E0909326
:1029900088038093870385EC90E090939403809361
:1029A000930384EC90E0909396038093950380ECDE
:1029B00090E0909398038093970381EC90E090933C
:1029C0009A038093990382EC90E090939C03809308
:1029D0009B0386EC90E090939E0380939D0310925E
:1029E000A0031092A1031092A2031092A3030895D2
:1029F000CF92DF92EF92FF920F931F93CF93DF93CB
:102A00007C016A01EB0100E010E00C151D0571F07E
:102A10006991D701ED91FC910190F081E02DC70102
:102A20000995892B19F00F5F1F4FEFCFC801DF9178
:102A3000CF911F910F91FF90EF90DF90CF9008956D
:102A40006115710581F0DB010D900020E9F7AD0102
:102A500041505109461B570BDC01ED91FC9102805E
:102A6000F381E02D099480E090E008950C94201506
:102A7000DC01ED91FC910190F081E02D09948F92A1
:102A80009F92AF92BF92DF92EF92FF920F931F93AC
:102A9000CF93DF93CDB7DEB7A1970FB6F894DEBF23
:102AA0000FBECDBF7C01F42FD52ECB0119A2223051
:102AB00008F42AE08E010F5D1F4F822E912CA12C6D
:102AC000B12C6F2F7D2DA50194010E941F1BF22FA9
:102AD000D32ECA01015011096A3014F4E0E301C099
:102AE000E7E3E60FD801EC93232B242B252B49F7A2
:102AF000B801C7010E942015A1960FB6F894DEBF59
:102B00000FBECDBFDF91CF911F910F91FF90EF903E
:102B1000DF90BF90AF909F908F900895CF92DF92FB
:102B2000EF92FF920F931F93CF93DF93EC016A0113
:102B30007B012115310579F4E881F9810190F0815B
:102B4000E02D642FDF91CF911F910F91FF90EF90B7
:102B5000DF90CF9009942A303105E9F477FF1AC04D
:102B60006DE20E9438158C0144275527BA014C1993
:102B70005D096E097F092AE0CE010E943F15800F92
:102B8000911FDF91CF911F910F91FF90EF90DF90F8
:102B9000CF9008952AE0B701A601CE01DF91CF9131
:102BA0001F910F91FF90EF90DF90CF900C943F1505
:102BB0009A01AB01662757FD6095762F0C948E1510
:102BC0002115310541F4DC01ED91FC910190F0817A
:102BD000E02D642F09940C943F150F931F93CF930E
:102BE000DF93EC010E94DA17688779878A879B87D1
:102BF000E881F9810680F781E02DCE01099597FFE4
:102C000015C00E94DA17088519852A853B85601B47
:102C1000710B820B930B0C811D812E813F816017FC
:102C200071078207930720F38FEF9FEFDF91CF911A
:102C30001F910F910895EF92FF920F931F93CF93DF
:102C4000DF93EC018B01E42E60E171E00E9420171C
:102C5000C8010E94ED15FF24E7FCF09497FD0BC01E
:102C60008E159F0541F0682FCE010E946217C801A2
:102C70000E94ED15F3CFCE01DF91CF911F910F91FF
:102C8000FF90EF90089508958230E8F4E82FF0E087
:102C9000EE0FFF1FE85FFE4F71836083813041F0CC
:102CA000809169008C7F842B80936900E89A089555
:102CB00080916900440F551F440F551F837F842B5B
:102CC00080936900E99A08951F920F920FB60F92B0
:102CD00011242F933F934F935F936F937F938F9321
:102CE0009F93AF93BF93EF93FF93E0910801F0910F
:102CF00009010995FF91EF91BF91AF919F918F913C
:102D00007F916F915F914F913F912F910F900FBEE7
:102D10000F901F9018951F920F920FB60F921124CB
:102D20002F933F934F935F936F937F938F939F93D3
:102D3000AF93BF93EF93FF93E0910A01F0910B01E2
:102D40000995FF91EF91BF91AF919F918F917F91E5
:102D50006F915F914F913F912F910F900FBE0F9008
:102D60001F901895FC01808191810C94DF1BCF93FB
:102D7000DF93EC0188819981009711F00E94DF1B9D
:102D8000198218821D821C821B821A82DF91CF91C8
:102D900008950F931F93CF93DF93EC018B016F5F27
:102DA0007F4F888199810E946E1C009731F0998332
:102DB00088831B830A8381E001C080E0DF91CF918B
:102DC0001F910F910895CF93DF93EC018881998132
:102DD000892B29F08A819B818617970760F4CE01A1
:102DE0000E94C916882341F08C819D81892B19F49A
:102DF000E881F981108281E0DF91CF910895EF920F
:102E0000FF920F931F93CF93DF93EC017B018A0115
:102E1000BA010E94E316811104C0CE010E94B716C8
:102E200007C01D830C83B701888199810E94681DAA
:102E3000CE01DF91CF911F910F91FF90EF900895F8
:102E4000FC01118210821382128215821482611594
:102E5000710559F0FB0101900020E9F7AF014150E5
:102E60005109461B570B0C94FF160895EF92FF92E1
:102E70000F931F93CF93DF93EC017B010C811D8196
:102E80006115710511F480E016C04115510591F0EE
:102E9000040F151FB8010E94E3168823A1F32881AF
:102EA00039818C819D81B701820F931F0E94681D1B
:102EB0001D830C8381E0DF91CF911F910F91FF90D3
:102EC000EF900895CF93DF9300D0CDB7DEB769833D
:102ED0001A8241E050E0BE016F5F7F4F0E943617BB
:102EE0000F900F90DF91CF910895FC018081918127
:102EF000009711F00C94381D60E070E0CB0108954C
:102F000008950E9414180E9480170E94800CCBE341
:102F1000D3E10E94E00F2097E1F30E943B13F9CF29
:102F20001F920F920FB60F9211242F933F938F93FE
:102F30009F93AF93BF938091250490912604A09115
:102F40002704B09128043091240423E0230F2D3767
:102F500020F40196A11DB11D05C026E8230F02969D
:102F6000A11DB11D20932404809325049093260471
:102F7000A0932704B09328048091290490912A04F7
:102F8000A0912B04B0912C040196A11DB11D80933A
:102F9000290490932A04A0932B04B0932C04BF918E
:102FA000AF919F918F913F912F910F900FBE0F90F6
:102FB0001F9018952FB7F8946091250470912604FE
:102FC00080912704909128042FBF08953FB7F8946B
:102FD0008091290490912A04A0912B04B0912C0493
:102FE00026B5A89B05C02F3F19F00196A11DB11D64
:102FF0003FBF6627782F892F9A2F620F711D811D81
:10300000911D42E0660F771F881F991F4A95D1F7DF
:1030100008958230910538F0880F991F880F991F05
:1030200005970197F1F70895789484B5826084BD7F
:1030300084B5816084BD85B5826085BD85B58160BC
:1030400085BDEEE6F0E0808181608083E1E8F0E01C
:103050001082808182608083808181608083E0E84B
:10306000F0E0808181608083E1EBF0E0808184602A
:103070008083E0EBF0E0808181608083EAE7F0E02C
:103080008081846080838081826080838081816090
:1030900080838081806880831092C10008958E3083
:1030A00008F08E50877020910C0190E4299F9001C8
:1030B0001124822B80937C0080917A00806480931D
:1030C0007A0080917A0086FDFCCF80917800209173
:1030D000790090E0922B0895833081F028F48130BC
:1030E00099F08230A1F008958730A9F08830B9F0C6
:1030F0008430D1F4809180008F7D03C08091800066
:103100008F7780938000089584B58F7702C084B54F
:103110008F7D84BD08958091B0008F7703C080912A
:10312000B0008F7D8093B0000895CF93DF9390E03F
:10313000FC01E25BF74E2491FC01EE59F74E8491BD
:10314000882349F190E0880F991FFC01E058F74E61
:10315000A591B4918A58974EFC01C591D4919FB71F
:10316000611108C0F8948C91209582238C938881FA
:1031700082230AC0623051F4F8948C91322F30953A
:1031800083238C938881822B888304C0F8948C914C
:10319000822B8C939FBFDF91CF9108950F931F9344
:1031A000CF93DF931F92CDB7DEB7282F30E0F90120
:1031B000E65CF74E8491F901E25BF74E1491F90158
:1031C000EE59F74E04910023C9F0882321F069835A
:1031D0000E946C186981E02FF0E0EE0FFF1FEA58A3
:1031E000F74EA591B4919FB7F8948C91611103C0EB
:1031F0001095812301C0812B8C939FBF0F90DF918D
:10320000CF911F910F9108955058BB27AA270ED038
:1032100075C166D130F06BD120F031F49F3F11F4CD
:103220001EF45BC10EF4E095E7FB51C1E92F77D1A5
:1032300080F3BA17620773078407950718F071F4D3
:103240009EF58FC10EF4E0950B2EBA2FA02D0B0129
:10325000B90190010C01CA01A0011124FF27591BDB
:1032600099F0593F50F4503E68F11A16F040A22FE1
:10327000232F342F4427585FF3CF46953795279552
:10328000A795F0405395C9F77EF41F16BA0B620B51
:10329000730B840BBAF09150A1F0FF0FBB1F661F98
:1032A000771F881FC2F70EC0BA0F621F731F841FDB
:1032B00048F4879577956795B795F7959E3F08F001
:1032C000B3CF9395880F08F09927EE0F97958795C0
:1032D0000895D9D008F481E008950CD00FC107D12A
:1032E00040F0FED030F021F45F3F19F0F0C05111F2
:1032F00039C1F3C014D198F39923C9F35523B1F31D
:10330000951B550BBB27AA2762177307840738F054
:103310009F5F5F4F220F331F441FAA1FA9F333D0B3
:103320000E2E3AF0E0E830D091505040E695001C67
:10333000CAF729D0FE2F27D0660F771F881FBB1F23
:10334000261737074807AB07B0E809F0BB0B802DFD
:10335000BF01FF2793585F4F2AF09E3F510568F049
:10336000B6C000C15F3FECF3983EDCF386957795DD
:103370006795B795F7959F5FC9F7880F911D96954B
:10338000879597F90895E1E0660F771F881FBB1FA7
:10339000621773078407BA0720F0621B730B840B54
:1033A000BA0BEE1F88F7E095089504D06894B11128
:1033B000D9C00895BCD088F09F5790F0B92F9927B5
:1033C000B751A0F0D1F0660F771F881F991F1AF030
:1033D000BA95C9F712C0B13081F0C3D0B1E00895F9
:1033E000C0C0672F782F8827B85F39F0B93FCCF37A
:1033F000869577956795B395D9F73EF49095809526
:10340000709561957F4F8F4F9F4F0895E89409C045
:1034100097FB3EF490958095709561957F4F8F4F07
:103420009F4F9923A9F0F92F96E9BB279395F6951D
:10343000879577956795B795F111F8CFFAF4BB0F9B
:1034400011F460FF1BC06F5F7F4F8F4F9F4F16C0FF
:10345000882311F096E911C0772321F09EE8872F89
:10346000762F05C0662371F096E8862F70E060E045
:103470002AF09A95660F771F881FDAF7880F9695BE
:10348000879597F90895990F0008550FAA0BE0E862
:10349000FEEF16161706E807F907C0F01216130616
:1034A000E407F50798F0621B730B840B950B39F456
:1034B0000A2661F0232B242B252B21F408950A26BC
:1034C00009F4A140A6958FEF811D811D089597F9FC
:1034D0009F6780E870E060E008959FEF80EC0895BA
:1034E00000240A94161617061806090608950024E3
:1034F0000A9412161306140605060895092E03945D
:10350000000C11F4882352F0BB0F40F4BF2B11F4D0
:1035100060FF04C06F5F7F4F8F4F9F4F089557FD2F
:103520009058440F551F59F05F3F71F04795880F31
:1035300097FB991F61F09F3F79F0879508951216C8
:1035400013061406551FF2CF4695F1DF08C0161674
:1035500017061806991FF1CF869571056105089425
:103560000895E894BB2766277727CB0197F908953C
:103570008ADF08F48FEF08950BD0C0CFB1DF28F0B9
:10358000B6DF18F0952309F0A2CFA7CF1124EACF18
:10359000C6DFA0F3959FD1F3950F50E0551F629FB2
:1035A000F001729FBB27F00DB11D639FAA27F00D9C
:1035B000B11DAA1F649F6627B00DA11D661F829FC3
:1035C0002227B00DA11D621F739FB00DA11D621FA8
:1035D000839FA00D611D221F749F3327A00D611DC5
:1035E000231F849F600D211D822F762F6A2F1124A7
:1035F0009F5750408AF0E1F088234AF0EE0FFF1FFA
:10360000BB1F661F771F881F91505040A9F79E3F30
:10361000510570F05CCFA6CF5F3FECF3983EDCF332
:10362000869577956795B795F795E7959F5FC1F76D
:10363000FE2B880F911D9695879597F90895A1E225
:103640001A2EAA1BBB1BFD010DC0AA1FBB1FEE1F1C
:10365000FF1FA217B307E407F50720F0A21BB30B67
:10366000E40BF50B661F771F881F991F1A9469F7E3
:1036700060957095809590959B01AC01BD01CF013F
:103680000895EE0FFF1F0590F491E02D0994CF935C
:10369000DF938230910510F482E090E0E0912F04F6
:1036A000F091300420E030E0A0E0B0E0309739F154
:1036B0004081518148175907B8F04817590771F4EC
:1036C00082819381109729F013969C938E93129781
:1036D0002CC09093300480932F0427C0211531050E
:1036E00031F04217530718F0A901DB0101C0EF01C7
:1036F0009A01BD01DF010280F381E02DD7CF2115B2
:103700003105F9F0281B390B2430310580F48A810A
:103710009B816115710521F0FB019383828304C0B5
:103720009093300480932F04FE01329644C0FE0132
:10373000E20FF31F8193919322503109398328833B
:103740003AC020912D0430912E04232B41F4209176
:1037500002013091030130932E0420932D04209117
:103760000001309101012115310541F42DB73EB71B
:103770004091040150910501241B350BE0912D046B
:10378000F0912E04E217F307A0F42E1B3F0B28172D
:10379000390778F0AC014E5F5F4F2417350748F0CA
:1037A0004E0F5F1F50932E0440932D0481939193ED
:1037B00002C0E0E0F0E0CF01DF91CF910895CF9318
:1037C000DF93009709F487C0FC01329713821282BD
:1037D000C0912F04D0913004209781F42081318151
:1037E000280F391F80912D0490912E048217930782
:1037F00079F5F0932E04E0932D046DC0DE0120E0F6
:1038000030E0AE17BF0750F412964D915C911397BC
:103810009D014115510509F1DA01F3CFB383A2836C
:1038200040815181840F951F8A179B0771F48D91F8
:103830009C911197840F951F029691838083129615
:103840008D919C911397938382832115310529F4DF
:10385000F0933004E0932F043EC0D9011396FC93FB
:10386000EE9312974D915D91A40FB51FEA17FB07D8
:1038700079F480819181840F951F0296D901119668
:103880009C938E938281938113969C938E9312972F
:10389000E0E0F0E08A819B81009719F0FE01EC01E5
:1038A000F9CFCE01029628813981820F931F209192
:1038B0002D0430912E042817390769F4309729F424
:1038C0001092300410922F0402C013821282D093FF
:1038D0002E04C0932D04DF91CF910895A0E0B0E0B5
:1038E000E4E7FCE10C94881DEC01CB01209719F46E
:1038F0000E94471BB8C0FE01E60FF71F9E01225031
:103900003109E217F30708F4ACC0D9010D911C91FD
:10391000119706171707B8F00530110508F49FC076
:10392000A801445051094617570708F498C002509F
:103930001109061B170B019311936D937C93CF0113
:103940000E94DF1B8CC05B01A01AB10A4E01800EE1
:10395000911EA0912F04B0913004612C712C60E075
:1039600070E0109709F449C0A815B905C9F5ED90A4
:10397000FC901197670142E0C40ED11CCA14DB040D
:1039800078F147018A189B08640142E0C40ED11CFB
:103990001296BC9012971396AC91B5E0CB16D10459
:1039A00040F0B282A38391828082D9018D939C934F
:1039B00009C00E5F1F4F0E0D1F1DF90111830083FB
:1039C000EB2DFA2F6115710531F0DB011396FC9395
:1039D000EE93129744C0F0933004E0932F043FC05D
:1039E0006D917C9111976616770608F43B01BD0135
:1039F00012960D90BC91A02DB4CF60912D047091C2
:103A00002E0468157905E9F468167906D0F440911A
:103A10000001509101014115510541F44DB75EB7C8
:103A20006091040170910501461B570BE417F507DF
:103A3000C0F4F0932E04E0932D04F9019183808368
:103A40000EC00E94471B7C01009759F0A801BE01DF
:103A50000E945F1DCE010E94DF1BC70104C0CE0182
:103A600002C080E090E0CDB7DEB7EEE00C94A41D7C
:103A70001F93FC0199278827BC01E894119110320B
:103A8000E9F3193010F01E30C8F31B3251F01D322B
:103A900049F4689406C00E946F1D610F711D811D5D
:103AA000911D119110531A30B0F33EF4909580950A
:103AB000709561957F4F8F4F9F4F1F910895FB0128
:103AC000DC0102C001900D9241505040D8F708959A
:103AD000FB01DC0101900D920020E1F70895592FC0
:103AE000482F372F262F660F771F881F991F660FC5
:103AF000771F881F991F620F731F841F951F660F02
:103B0000771F881F991F08952F923F924F925F92BF
:103B10006F927F928F929F92AF92BF92CF92DF92DD
:103B2000EF92FF920F931F93CF93DF93CDB7DEB742
:103B3000CA1BDB0B0FB6F894DEBF0FBECDBF0994D6
:103B40002A88398848885F846E847D848C849B842D
:103B5000AA84B984C884DF80EE80FD800C811B813B
:103B6000AA81B981CE0FD11D0FB6F894DEBF0FBE6A
:0A3B7000CDBFED010895F894FFCFDA
:103B7A00000031048000FFFF43164316013B303B2F
:103B8A000000000000CB129E1273127B128E129D4F
:103B9A0012000000008C13F8140E13271319136A6D
:023BAA00130006
:00000001FF
